{
  "contractName": "SimpleExchange",
  "abi": [
    {
      "constant": true,
      "inputs": [],
      "name": "token",
      "outputs": [
        {
          "name": "",
          "type": "address"
        }
      ],
      "payable": false,
      "stateMutability": "view",
      "type": "function"
    },
    {
      "inputs": [
        {
          "name": "_tokenAddress",
          "type": "address"
        }
      ],
      "payable": false,
      "stateMutability": "nonpayable",
      "type": "constructor"
    },
    {
      "anonymous": false,
      "inputs": [
        {
          "indexed": true,
          "name": "_tokenId",
          "type": "uint256"
        },
        {
          "indexed": true,
          "name": "_price",
          "type": "uint256"
        }
      ],
      "name": "TokenListed",
      "type": "event"
    },
    {
      "anonymous": false,
      "inputs": [
        {
          "indexed": true,
          "name": "_tokenId",
          "type": "uint256"
        },
        {
          "indexed": true,
          "name": "_price",
          "type": "uint256"
        }
      ],
      "name": "TokenSold",
      "type": "event"
    },
    {
      "constant": false,
      "inputs": [
        {
          "name": "_tokenId",
          "type": "uint256"
        },
        {
          "name": "_price",
          "type": "uint256"
        }
      ],
      "name": "listToken",
      "outputs": [],
      "payable": false,
      "stateMutability": "nonpayable",
      "type": "function"
    },
    {
      "constant": true,
      "inputs": [
        {
          "name": "_tokenId",
          "type": "uint256"
        }
      ],
      "name": "listingPrice",
      "outputs": [
        {
          "name": "",
          "type": "uint256"
        }
      ],
      "payable": false,
      "stateMutability": "view",
      "type": "function"
    },
    {
      "constant": false,
      "inputs": [
        {
          "name": "_tokenId",
          "type": "uint256"
        }
      ],
      "name": "buyToken",
      "outputs": [],
      "payable": true,
      "stateMutability": "payable",
      "type": "function"
    }
  ],
  "bytecode": "0x608060405234801561001057600080fd5b5060405160208061098c8339810180604052602081101561003057600080fd5b8101908080519060200190929190505050806000806101000a81548173ffffffffffffffffffffffffffffffffffffffff021916908373ffffffffffffffffffffffffffffffffffffffff160217905550506108fb806100916000396000f3fe60806040526004361061005c576000357c010000000000000000000000000000000000000000000000000000000090048063115bc936146100615780632d296bf1146100b057806375c1631d146100de578063fc0c546a14610123575b600080fd5b34801561006d57600080fd5b5061009a6004803603602081101561008457600080fd5b810190808035906020019092919050505061017a565b6040518082815260200191505060405180910390f35b6100dc600480360360208110156100c657600080fd5b8101908080359060200190929190505050610197565b005b3480156100ea57600080fd5b506101216004803603604081101561010157600080fd5b810190808035906020019092919080359060200190929190505050610491565b005b34801561012f57600080fd5b506101386107e5565b604051808273ffffffffffffffffffffffffffffffffffffffff1673ffffffffffffffffffffffffffffffffffffffff16815260200191505060405180910390f35b600060016000838152602001908152602001600020549050919050565b6101a1813461080a565b610213576040517f08c379a00000000000000000000000000000000000000000000000000000000081526004018080602001828103825260128152602001807f4e6f206f7264657220617661696c61626c65000000000000000000000000000081525060200191505060405180910390fd5b60008060009054906101000a900473ffffffffffffffffffffffffffffffffffffffff1673ffffffffffffffffffffffffffffffffffffffff16636352211e836040518263ffffffff167c01000000000000000000000000000000000000000000000000000000000281526004018082815260200191505060206040518083038186803b1580156102a357600080fd5b505afa1580156102b7573d6000803e3d6000fd5b505050506040513d60208110156102cd57600080fd5b8101908080519060200190929190505050905060008190508073ffffffffffffffffffffffffffffffffffffffff166108fc349081150290604051600060405180830381858888f1935050505015801561032b573d6000803e3d6000fd5b506000600160008581526020019081526020016000205490506000809054906101000a900473ffffffffffffffffffffffffffffffffffffffff1673ffffffffffffffffffffffffffffffffffffffff166342842e0e8433876040518463ffffffff167c0100000000000000000000000000000000000000000000000000000000028152600401808473ffffffffffffffffffffffffffffffffffffffff1673ffffffffffffffffffffffffffffffffffffffff1681526020018373ffffffffffffffffffffffffffffffffffffffff1673ffffffffffffffffffffffffffffffffffffffff1681526020018281526020019350505050600060405180830381600087803b15801561043c57600080fd5b505af1158015610450573d6000803e3d6000fd5b5050505061045d846108b3565b80847f5120429c88882edc469993b2f7c2d1f13287fd3ccf3ec20d28f3af207fd6b28160405160405180910390a350505050565b60008060009054906101000a900473ffffffffffffffffffffffffffffffffffffffff1673ffffffffffffffffffffffffffffffffffffffff16636352211e846040518263ffffffff167c01000000000000000000000000000000000000000000000000000000000281526004018082815260200191505060206040518083038186803b15801561052157600080fd5b505afa158015610535573d6000803e3d6000fd5b505050506040513d602081101561054b57600080fd5b810190808051906020019092919050505090503373ffffffffffffffffffffffffffffffffffffffff168173ffffffffffffffffffffffffffffffffffffffff16146105ff576040517f08c379a000000000000000000000000000000000000000000000000000000000815260040180806020018281038252600c8152602001807f556e617574686f72697a6564000000000000000000000000000000000000000081525060200191505060405180910390fd5b6000809054906101000a900473ffffffffffffffffffffffffffffffffffffffff1673ffffffffffffffffffffffffffffffffffffffff1663e985e9c582306040518363ffffffff167c0100000000000000000000000000000000000000000000000000000000028152600401808373ffffffffffffffffffffffffffffffffffffffff1673ffffffffffffffffffffffffffffffffffffffff1681526020018273ffffffffffffffffffffffffffffffffffffffff1673ffffffffffffffffffffffffffffffffffffffff1681526020019250505060206040518083038186803b1580156106ed57600080fd5b505afa158015610701573d6000803e3d6000fd5b505050506040513d602081101561071757600080fd5b810190808051906020019092919050505061079a576040517f08c379a000000000000000000000000000000000000000000000000000000000815260040180806020018281038252600c8152602001807f4e6f7420617070726f766564000000000000000000000000000000000000000081525060200191505060405180910390fd5b81600160008581526020019081526020016000208190555081837f1ea85aaf6731daa0c29195039c2a36576fb04e2cd16335504fab8967dfb03f1560405160405180910390a3505050565b6000809054906101000a900473ffffffffffffffffffffffffffffffffffffffff1681565b600080600160008581526020019081526020016000205411610894576040517f08c379a00000000000000000000000000000000000000000000000000000000081526004018080602001828103825260088152602001807f4e6f206f7264657200000000000000000000000000000000000000000000000081525060200191505060405180910390fd5b8160016000858152602001908152602001600020541115905092915050565b600060016000838152602001908152602001600020819055505056fea165627a7a72305820621046b72e907501344a03d029f40508ba83491f761662f01054bf38e27870310029",
  "source": "pragma solidity >=0.5.0 <0.6.0;\nimport \"./../app/node_modules/openzeppelin-solidity/contracts/token/ERC721/ERC721Full.sol\";\n\ncontract SimpleExchange {\n    \n    ERC721Full public token;\n    \n    mapping(uint => uint) orderBook;\n\n    event TokenListed(\n        uint indexed _tokenId,\n        uint indexed _price\n    );\n\n    event TokenSold(uint indexed _tokenId, uint indexed _price);\n\n    constructor(address _tokenAddress) public {\n        token = ERC721Full(_tokenAddress);\n    }\n\n    function listToken(uint _tokenId, uint _price) public {\n        // check if msg.sender owns the token\n        address owner = token.ownerOf(_tokenId);\n        require(owner == msg.sender, \"Unauthorized\");\n\n        // check if the exchange contract has approval\n        require(token.isApprovedForAll(owner, address(this)), \"Not approved\");\n\n        //list token\n        orderBook[_tokenId] = _price;\n\n        emit TokenListed(_tokenId, _price);\n    }\n\n    function validBuyOrder(uint _tokenId, uint _price) private view returns(bool){\n        require(orderBook[_tokenId] > 0, \"No order\");\n        return (orderBook[_tokenId] <= _price);\n    }\n\n    function markTokenAsSold(uint _tokenId) private{\n        orderBook[_tokenId] = 0;\n    }\n\n    function listingPrice(uint _tokenId) public view returns(uint){\n        return orderBook[_tokenId];\n    }\n\n    function buyToken(uint _tokenId) public payable {\n        // validate the purchase order\n        require(validBuyOrder(_tokenId, msg.value), \"No order available\");\n        // transfer money to owner\n        address owner = token.ownerOf(_tokenId);\n        address payable payableOwner = address(uint160(owner));\n        payableOwner.transfer(msg.value);\n        // transfer token to buyer\n        uint _price = orderBook[_tokenId];\n        token.safeTransferFrom(owner, msg.sender, _tokenId);\n        markTokenAsSold(_tokenId);\n        emit TokenSold(_tokenId, _price);\n    }\n}\n",
  "sourcePath": "D:\\Documents\\myProject\\NFT_GraphTokens\\contracts\\SimpleExchange.sol",
  "compiler": {
    "name": "solc",
    "version": "0.5.7+commit.6da8b019.Emscripten.clang"
  },
  "schemaVersion": "3.0.23",
  "updatedAt": "2021-02-27T17:35:31.990Z",
  "networkType": "ethereum",
  "devdoc": {
    "methods": {}
  },
  "userdoc": {
    "methods": {}
  }
}